{
  "contractName": "ArtemisTreasury",
  "abi": [
    {
      "inputs": [
        {
          "internalType": "address[]",
          "name": "_nations",
          "type": "address[]"
        },
        {
          "internalType": "uint256",
          "name": "_numConfirmationsRequired",
          "type": "uint256"
        }
      ],
      "payable": false,
      "stateMutability": "nonpayable",
      "type": "constructor"
    },
    {
      "anonymous": false,
      "inputs": [
        {
          "indexed": true,
          "internalType": "address",
          "name": "owner",
          "type": "address"
        },
        {
          "indexed": true,
          "internalType": "uint256",
          "name": "txIndex",
          "type": "uint256"
        }
      ],
      "name": "ConfirmTransaction",
      "type": "event"
    },
    {
      "anonymous": false,
      "inputs": [
        {
          "indexed": true,
          "internalType": "address",
          "name": "sender",
          "type": "address"
        },
        {
          "indexed": false,
          "internalType": "uint256",
          "name": "amount",
          "type": "uint256"
        },
        {
          "indexed": false,
          "internalType": "uint256",
          "name": "balance",
          "type": "uint256"
        }
      ],
      "name": "Deposit",
      "type": "event"
    },
    {
      "anonymous": false,
      "inputs": [
        {
          "indexed": true,
          "internalType": "address",
          "name": "owner",
          "type": "address"
        },
        {
          "indexed": true,
          "internalType": "uint256",
          "name": "txIndex",
          "type": "uint256"
        }
      ],
      "name": "ExecuteTransaction",
      "type": "event"
    },
    {
      "anonymous": false,
      "inputs": [
        {
          "indexed": true,
          "internalType": "address",
          "name": "owner",
          "type": "address"
        },
        {
          "indexed": true,
          "internalType": "uint256",
          "name": "txIndex",
          "type": "uint256"
        }
      ],
      "name": "RevokeConfirmation",
      "type": "event"
    },
    {
      "anonymous": false,
      "inputs": [
        {
          "indexed": true,
          "internalType": "address",
          "name": "owner",
          "type": "address"
        },
        {
          "indexed": true,
          "internalType": "uint256",
          "name": "txIndex",
          "type": "uint256"
        },
        {
          "indexed": true,
          "internalType": "address",
          "name": "to",
          "type": "address"
        },
        {
          "indexed": false,
          "internalType": "uint256",
          "name": "value",
          "type": "uint256"
        },
        {
          "indexed": false,
          "internalType": "bytes",
          "name": "data",
          "type": "bytes"
        }
      ],
      "name": "SubmitTransaction",
      "type": "event"
    },
    {
      "payable": true,
      "stateMutability": "payable",
      "type": "fallback"
    },
    {
      "constant": true,
      "inputs": [
        {
          "internalType": "address",
          "name": "",
          "type": "address"
        }
      ],
      "name": "isOwner",
      "outputs": [
        {
          "internalType": "bool",
          "name": "",
          "type": "bool"
        }
      ],
      "payable": false,
      "stateMutability": "view",
      "type": "function"
    },
    {
      "constant": true,
      "inputs": [
        {
          "internalType": "uint256",
          "name": "",
          "type": "uint256"
        }
      ],
      "name": "nations",
      "outputs": [
        {
          "internalType": "address",
          "name": "",
          "type": "address"
        }
      ],
      "payable": false,
      "stateMutability": "view",
      "type": "function"
    },
    {
      "constant": true,
      "inputs": [],
      "name": "numConfirmationsRequired",
      "outputs": [
        {
          "internalType": "uint256",
          "name": "",
          "type": "uint256"
        }
      ],
      "payable": false,
      "stateMutability": "view",
      "type": "function"
    },
    {
      "constant": true,
      "inputs": [
        {
          "internalType": "uint256",
          "name": "",
          "type": "uint256"
        }
      ],
      "name": "transactions",
      "outputs": [
        {
          "internalType": "address",
          "name": "to",
          "type": "address"
        },
        {
          "internalType": "uint256",
          "name": "value",
          "type": "uint256"
        },
        {
          "internalType": "bytes",
          "name": "data",
          "type": "bytes"
        },
        {
          "internalType": "bool",
          "name": "executed",
          "type": "bool"
        },
        {
          "internalType": "uint256",
          "name": "numConfirmations",
          "type": "uint256"
        }
      ],
      "payable": false,
      "stateMutability": "view",
      "type": "function"
    },
    {
      "constant": false,
      "inputs": [
        {
          "internalType": "address",
          "name": "_to",
          "type": "address"
        },
        {
          "internalType": "uint256",
          "name": "_value",
          "type": "uint256"
        },
        {
          "internalType": "bytes",
          "name": "_data",
          "type": "bytes"
        }
      ],
      "name": "submitTransaction",
      "outputs": [],
      "payable": false,
      "stateMutability": "nonpayable",
      "type": "function"
    },
    {
      "constant": false,
      "inputs": [
        {
          "internalType": "uint256",
          "name": "_txIndex",
          "type": "uint256"
        }
      ],
      "name": "confirmTransaction",
      "outputs": [],
      "payable": false,
      "stateMutability": "nonpayable",
      "type": "function"
    },
    {
      "constant": false,
      "inputs": [
        {
          "internalType": "uint256",
          "name": "_txIndex",
          "type": "uint256"
        }
      ],
      "name": "executeTransaction",
      "outputs": [],
      "payable": false,
      "stateMutability": "nonpayable",
      "type": "function"
    },
    {
      "constant": false,
      "inputs": [
        {
          "internalType": "uint256",
          "name": "_txIndex",
          "type": "uint256"
        }
      ],
      "name": "revokeConfirmation",
      "outputs": [],
      "payable": false,
      "stateMutability": "nonpayable",
      "type": "function"
    },
    {
      "constant": true,
      "inputs": [],
      "name": "getNations",
      "outputs": [
        {
          "internalType": "address[]",
          "name": "",
          "type": "address[]"
        }
      ],
      "payable": false,
      "stateMutability": "view",
      "type": "function"
    },
    {
      "constant": true,
      "inputs": [],
      "name": "getTransactionCount",
      "outputs": [
        {
          "internalType": "uint256",
          "name": "",
          "type": "uint256"
        }
      ],
      "payable": false,
      "stateMutability": "view",
      "type": "function"
    },
    {
      "constant": true,
      "inputs": [
        {
          "internalType": "uint256",
          "name": "_txIndex",
          "type": "uint256"
        }
      ],
      "name": "getTransaction",
      "outputs": [
        {
          "internalType": "address",
          "name": "to",
          "type": "address"
        },
        {
          "internalType": "uint256",
          "name": "value",
          "type": "uint256"
        },
        {
          "internalType": "bytes",
          "name": "data",
          "type": "bytes"
        },
        {
          "internalType": "bool",
          "name": "executed",
          "type": "bool"
        },
        {
          "internalType": "uint256",
          "name": "numConfirmations",
          "type": "uint256"
        }
      ],
      "payable": false,
      "stateMutability": "view",
      "type": "function"
    },
    {
      "constant": true,
      "inputs": [
        {
          "internalType": "uint256",
          "name": "_txIndex",
          "type": "uint256"
        },
        {
          "internalType": "address",
          "name": "_owner",
          "type": "address"
        }
      ],
      "name": "isConfirmed",
      "outputs": [
        {
          "internalType": "bool",
          "name": "",
          "type": "bool"
        }
      ],
      "payable": false,
      "stateMutability": "view",
      "type": "function"
    }
  ],
  "bytecode": "0x60806040523480156200001157600080fd5b5060405162001d4838038062001d48833981810160405260408110156200003757600080fd5b81019080805160405193929190846401000000008211156200005857600080fd5b838201915060208201858111156200006f57600080fd5b82518660208202830111640100000000821117156200008d57600080fd5b8083526020830192505050908051906020019060200280838360005b83811015620000c6578082015181840152602081019050620000a9565b5050505090500160405260200180519060200190929190505050600082511162000158576040517f08c379a000000000000000000000000000000000000000000000000000000000815260040180806020018281038252601c8152602001807f416e206f776e696e67204e6174696f6e2069732072657175697265640000000081525060200191505060405180910390fd5b6000811180156200016a575081518111155b620001c1576040517f08c379a000000000000000000000000000000000000000000000000000000000815260040180806020018281038252602881526020018062001d206028913960400191505060405180910390fd5b60008090505b82518110156200041b576000838281518110620001e057fe5b60200260200101519050600073ffffffffffffffffffffffffffffffffffffffff168173ffffffffffffffffffffffffffffffffffffffff1614156200028e576040517f08c379a000000000000000000000000000000000000000000000000000000000815260040180806020018281038252601f8152602001807f54686973204e6174696f6e20697320616e20496e76616c6964204f776e65720081525060200191505060405180910390fd5b600160008273ffffffffffffffffffffffffffffffffffffffff1673ffffffffffffffffffffffffffffffffffffffff16815260200190815260200160002060009054906101000a900460ff16156200034f576040517f08c379a00000000000000000000000000000000000000000000000000000000081526004018080602001828103825260198152602001807f54686973204e6174696f6e206973206e6f7420756e697175650000000000000081525060200191505060405180910390fd5b60018060008373ffffffffffffffffffffffffffffffffffffffff1673ffffffffffffffffffffffffffffffffffffffff16815260200190815260200160002060006101000a81548160ff02191690831515021790555060008190806001815401808255809150509060018203906000526020600020016000909192909190916101000a81548173ffffffffffffffffffffffffffffffffffffffff021916908373ffffffffffffffffffffffffffffffffffffffff16021790555050508080600101915050620001c7565b508060028190555050506118eb80620004356000396000f3fe6080604052600436106100a75760003560e01c80639ace38c2116100645780639ace38c2146103bc578063c01a8c84146104bc578063c6427474146104f7578063d0549b85146105e9578063e0f9ba9614610614578063ee22610b14610680576100a7565b806320ea8d86146100ff5780632e7700f01461013a5780632f54bf6e1461016557806333ea3dc8146101ce57806354613912146102ce57806380f59a6514610349575b3373ffffffffffffffffffffffffffffffffffffffff167f90890809c654f11d6e72a28fa60149770a0d11ec6c92319d6ceb2bb0a4ea1a153447604051808381526020018281526020019250505060405180910390a2005b34801561010b57600080fd5b506101386004803603602081101561012257600080fd5b81019080803590602001909291905050506106bb565b005b34801561014657600080fd5b5061014f610a0f565b6040518082815260200191505060405180910390f35b34801561017157600080fd5b506101b46004803603602081101561018857600080fd5b81019080803573ffffffffffffffffffffffffffffffffffffffff169060200190929190505050610a1c565b604051808215151515815260200191505060405180910390f35b3480156101da57600080fd5b50610207600480360360208110156101f157600080fd5b8101908080359060200190929190505050610a3c565b604051808673ffffffffffffffffffffffffffffffffffffffff1673ffffffffffffffffffffffffffffffffffffffff1681526020018581526020018060200184151515158152602001838152602001828103825285818151815260200191508051906020019080838360005b8381101561028f578082015181840152602081019050610274565b50505050905090810190601f1680156102bc5780820380516001836020036101000a031916815260200191505b50965050505050505060405180910390f35b3480156102da57600080fd5b50610307600480360360208110156102f157600080fd5b8101908080359060200190929190505050610b58565b604051808273ffffffffffffffffffffffffffffffffffffffff1673ffffffffffffffffffffffffffffffffffffffff16815260200191505060405180910390f35b34801561035557600080fd5b506103a26004803603604081101561036c57600080fd5b8101908080359060200190929190803573ffffffffffffffffffffffffffffffffffffffff169060200190929190505050610b94565b604051808215151515815260200191505060405180910390f35b3480156103c857600080fd5b506103f5600480360360208110156103df57600080fd5b8101908080359060200190929190505050610c0c565b604051808673ffffffffffffffffffffffffffffffffffffffff1673ffffffffffffffffffffffffffffffffffffffff1681526020018581526020018060200184151515158152602001838152602001828103825285818151815260200191508051906020019080838360005b8381101561047d578082015181840152602081019050610462565b50505050905090810190601f1680156104aa5780820380516001836020036101000a031916815260200191505b50965050505050505060405180910390f35b3480156104c857600080fd5b506104f5600480360360208110156104df57600080fd5b8101908080359060200190929190505050610d14565b005b34801561050357600080fd5b506105e76004803603606081101561051a57600080fd5b81019080803573ffffffffffffffffffffffffffffffffffffffff169060200190929190803590602001909291908035906020019064010000000081111561056157600080fd5b82018360208201111561057357600080fd5b8035906020019184600183028401116401000000008311171561059557600080fd5b91908080601f016020809104026020016040519081016040528093929190818152602001838380828437600081840152601f19601f820116905080830192505050505050509192919290505050611068565b005b3480156105f557600080fd5b506105fe611313565b6040518082815260200191505060405180910390f35b34801561062057600080fd5b50610629611319565b6040518080602001828103825283818151815260200191508051906020019060200280838360005b8381101561066c578082015181840152602081019050610651565b505050509050019250505060405180910390f35b34801561068c57600080fd5b506106b9600480360360208110156106a357600080fd5b81019080803590602001909291905050506113a7565b005b600160003373ffffffffffffffffffffffffffffffffffffffff1673ffffffffffffffffffffffffffffffffffffffff16815260200190815260200160002060009054906101000a900460ff1661077a576040517f08c379a000000000000000000000000000000000000000000000000000000000815260040180806020018281038252601c8152602001807f54686973204e6174696f6e206973206e6f7420746865206f776e65720000000081525060200191505060405180910390fd5b8060038054905081106107f5576040517f08c379a000000000000000000000000000000000000000000000000000000000815260040180806020018281038252601a8152602001807f5472616e73616374696f6e20646f6573206e6f7420657869737400000000000081525060200191505060405180910390fd5b816003818154811061080357fe5b906000526020600020906006020160030160009054906101000a900460ff1615610878576040517f08c379a00000000000000000000000000000000000000000000000000000000081526004018080602001828103825260258152602001806118926025913960400191505060405180910390fd5b60006003848154811061088757fe5b906000526020600020906006020190508060040160003373ffffffffffffffffffffffffffffffffffffffff1673ffffffffffffffffffffffffffffffffffffffff16815260200190815260200160002060009054906101000a900460ff16610958576040517f08c379a00000000000000000000000000000000000000000000000000000000081526004018080602001828103825260108152602001807f7478206e6f7420636f6e6669726d65640000000000000000000000000000000081525060200191505060405180910390fd5b60008160040160003373ffffffffffffffffffffffffffffffffffffffff1673ffffffffffffffffffffffffffffffffffffffff16815260200190815260200160002060006101000a81548160ff02191690831515021790555060018160050160008282540392505081905550833373ffffffffffffffffffffffffffffffffffffffff167ff0dca620e2e81f7841d07bcc105e1704fb01475b278a9d4c236e1c62945edd5560405160405180910390a350505050565b6000600380549050905090565b60016020528060005260406000206000915054906101000a900460ff1681565b6000806060600080600060038781548110610a5357fe5b906000526020600020906006020190508060000160009054906101000a900473ffffffffffffffffffffffffffffffffffffffff168160010154826002018360030160009054906101000a900460ff168460050154828054600181600116156101000203166002900480601f016020809104026020016040519081016040528092919081815260200182805460018160011615610100020316600290048015610b3d5780601f10610b1257610100808354040283529160200191610b3d565b820191906000526020600020905b815481529060010190602001808311610b2057829003601f168201915b50505050509250955095509550955095505091939590929450565b60008181548110610b6557fe5b906000526020600020016000915054906101000a900473ffffffffffffffffffffffffffffffffffffffff1681565b60008060038481548110610ba457fe5b906000526020600020906006020190508060040160008473ffffffffffffffffffffffffffffffffffffffff1673ffffffffffffffffffffffffffffffffffffffff16815260200190815260200160002060009054906101000a900460ff1691505092915050565b60038181548110610c1957fe5b90600052602060002090600602016000915090508060000160009054906101000a900473ffffffffffffffffffffffffffffffffffffffff1690806001015490806002018054600181600116156101000203166002900480601f016020809104026020016040519081016040528092919081815260200182805460018160011615610100020316600290048015610cf15780601f10610cc657610100808354040283529160200191610cf1565b820191906000526020600020905b815481529060010190602001808311610cd457829003601f168201915b5050505050908060030160009054906101000a900460ff16908060050154905085565b600160003373ffffffffffffffffffffffffffffffffffffffff1673ffffffffffffffffffffffffffffffffffffffff16815260200190815260200160002060009054906101000a900460ff16610dd3576040517f08c379a000000000000000000000000000000000000000000000000000000000815260040180806020018281038252601c8152602001807f54686973204e6174696f6e206973206e6f7420746865206f776e65720000000081525060200191505060405180910390fd5b806003805490508110610e4e576040517f08c379a000000000000000000000000000000000000000000000000000000000815260040180806020018281038252601a8152602001807f5472616e73616374696f6e20646f6573206e6f7420657869737400000000000081525060200191505060405180910390fd5b8160038181548110610e5c57fe5b906000526020600020906006020160030160009054906101000a900460ff1615610ed1576040517f08c379a00000000000000000000000000000000000000000000000000000000081526004018080602001828103825260258152602001806118926025913960400191505060405180910390fd5b8260038181548110610edf57fe5b906000526020600020906006020160040160003373ffffffffffffffffffffffffffffffffffffffff1673ffffffffffffffffffffffffffffffffffffffff16815260200190815260200160002060009054906101000a900460ff1615610f91576040517f08c379a000000000000000000000000000000000000000000000000000000000815260040180806020018281038252602681526020018061186c6026913960400191505060405180910390fd5b600060038581548110610fa057fe5b9060005260206000209060060201905060018160040160003373ffffffffffffffffffffffffffffffffffffffff1673ffffffffffffffffffffffffffffffffffffffff16815260200190815260200160002060006101000a81548160ff02191690831515021790555060018160050160008282540192505081905550843373ffffffffffffffffffffffffffffffffffffffff167f5cbe105e36805f7820e291f799d5794ff948af2a5f664e580382defb6339004160405160405180910390a35050505050565b600160003373ffffffffffffffffffffffffffffffffffffffff1673ffffffffffffffffffffffffffffffffffffffff16815260200190815260200160002060009054906101000a900460ff16611127576040517f08c379a000000000000000000000000000000000000000000000000000000000815260040180806020018281038252601c8152602001807f54686973204e6174696f6e206973206e6f7420746865206f776e65720000000081525060200191505060405180910390fd5b6000600380549050905060036040518060a001604052808673ffffffffffffffffffffffffffffffffffffffff16815260200185815260200184815260200160001515815260200160008152509080600181540180825580915050906001820390600052602060002090600602016000909192909190915060008201518160000160006101000a81548173ffffffffffffffffffffffffffffffffffffffff021916908373ffffffffffffffffffffffffffffffffffffffff16021790555060208201518160010155604082015181600201908051906020019061120c9291906117c6565b5060608201518160030160006101000a81548160ff021916908315150217905550608082015181600501555050508373ffffffffffffffffffffffffffffffffffffffff16813373ffffffffffffffffffffffffffffffffffffffff167fd5a05bf70715ad82a09a756320284a1b54c9ff74cd0f8cce6219e79b563fe59d86866040518083815260200180602001828103825283818151815260200191508051906020019080838360005b838110156112d25780820151818401526020810190506112b7565b50505050905090810190601f1680156112ff5780820380516001836020036101000a031916815260200191505b50935050505060405180910390a450505050565b60025481565b6060600080548060200260200160405190810160405280929190818152602001828054801561139d57602002820191906000526020600020905b8160009054906101000a900473ffffffffffffffffffffffffffffffffffffffff1673ffffffffffffffffffffffffffffffffffffffff1681526020019060010190808311611353575b5050505050905090565b600160003373ffffffffffffffffffffffffffffffffffffffff1673ffffffffffffffffffffffffffffffffffffffff16815260200190815260200160002060009054906101000a900460ff16611466576040517f08c379a000000000000000000000000000000000000000000000000000000000815260040180806020018281038252601c8152602001807f54686973204e6174696f6e206973206e6f7420746865206f776e65720000000081525060200191505060405180910390fd5b8060038054905081106114e1576040517f08c379a000000000000000000000000000000000000000000000000000000000815260040180806020018281038252601a8152602001807f5472616e73616374696f6e20646f6573206e6f7420657869737400000000000081525060200191505060405180910390fd5b81600381815481106114ef57fe5b906000526020600020906006020160030160009054906101000a900460ff1615611564576040517f08c379a00000000000000000000000000000000000000000000000000000000081526004018080602001828103825260258152602001806118926025913960400191505060405180910390fd5b60006003848154811061157357fe5b90600052602060002090600602019050600254816005015410156115ff576040517f08c379a00000000000000000000000000000000000000000000000000000000081526004018080602001828103825260118152602001807f63616e6e6f74206578656375746520747800000000000000000000000000000081525060200191505060405180910390fd5b60018160030160006101000a81548160ff02191690831515021790555060008160000160009054906101000a900473ffffffffffffffffffffffffffffffffffffffff1673ffffffffffffffffffffffffffffffffffffffff1682600101548360020160405180828054600181600116156101000203166002900480156116bd5780601f1061169b5761010080835404028352918201916116bd565b820191906000526020600020905b8154815290600101906020018083116116a9575b505091505060006040518083038185875af1925050503d80600081146116ff576040519150601f19603f3d011682016040523d82523d6000602084013e611704565b606091505b505090508061177b576040517f08c379a00000000000000000000000000000000000000000000000000000000081526004018080602001828103825260098152602001807f7478206661696c6564000000000000000000000000000000000000000000000081525060200191505060405180910390fd5b843373ffffffffffffffffffffffffffffffffffffffff167f5445f318f4f5fcfb66592e68e0cc5822aa15664039bd5f0ffde24c5a8142b1ac60405160405180910390a35050505050565b828054600181600116156101000203166002900490600052602060002090601f016020900481019282601f1061180757805160ff1916838001178555611835565b82800160010185558215611835579182015b82811115611834578251825591602001919060010190611819565b5b5090506118429190611846565b5090565b61186891905b8082111561186457600081600090555060010161184c565b5090565b9056fe5472616e73616374696f6e2068617320616c7265616479206265656e20636f6e6669726d65645472616e73616374696f6e2068617320616c7265616479206265656e206578656375746564a265627a7a723158205b804a72bfc16429ac8e0929f7d9206952ab37e09f0d2578ea16d9f0371478ae64736f6c63430005100032496e76616c6964206e756d626572206f6620726571756972656420636f6e6669726d6174696f6e73",
  "source": "pragma solidity >=0.4.21 <0.8.6;\n\ncontract ArtemisTreasury {\n    event Deposit(address indexed sender, uint amount, uint balance);\n    event SubmitTransaction(\n        address indexed owner,\n        uint indexed txIndex,\n        address indexed to,\n        uint value,\n        bytes data\n    );\n    event ConfirmTransaction(address indexed owner, uint indexed txIndex);\n    event RevokeConfirmation(address indexed owner, uint indexed txIndex);\n    event ExecuteTransaction(address indexed owner, uint indexed txIndex);\n\n    address[] public nations;\n    mapping(address => bool) public isOwner;\n    uint public numConfirmationsRequired;\n\n    struct Transaction {\n        address to;\n        uint value;\n        bytes data;\n        bool executed;\n        mapping(address => bool) isConfirmed;\n        uint numConfirmations;\n    }\n\n    Transaction[] public transactions;\n\n    /// @dev This modifier should require that msg.sender is an owner\n    modifier onlyOwner() {\n        require(isOwner[msg.sender], \"This Nation is not the owner\");\n        _;\n    }\n\n    /// @dev It should require that the transaction at txIndex exists\n    modifier txExists(uint _txIndex) {\n        require(_txIndex < transactions.length, \"Transaction does not exist\");\n        _;\n    }\n\n    /// @dev It should require that the transaction at txIndex is not yet executed\n    modifier notExecuted(uint _txIndex) {\n        require(!transactions[_txIndex].executed, \"Transaction has already been executed\");\n        _;\n    }\n\n    /// @dev It should require that the transaction at txIndex is not yet confirmed by msg.sender\n    modifier notConfirmed(uint _txIndex) {\n        require(!transactions[_txIndex].isConfirmed[msg.sender], \"Transaction has already been confirmed\");\n        _;\n    }\n\n    // Constructor initiates the nations involved in the Artemis program and the min. Confirmations for \n    // monetary policy decisions.\n    constructor(address[] memory _nations, uint _numConfirmationsRequired) public {\n        // 1. Validate that the _nation is not empty\n        require(_nations.length > 0, \"An owning Nation is required\");\n\n        // 2. Validate that _numConfirmationsRequired is greater than 0\n        // 3. Validate that _numConfirmationsRequired is less than or equal to the number of _nations\n        require(\n            _numConfirmationsRequired > 0 && _numConfirmationsRequired <= _nations.length,\n            \"Invalid number of required confirmations\"\n        );\n\n        // 4. Set the state variables nations from the input _nations.\n        for (uint i = 0; i < _nations.length; i++) {\n            address nation = _nations[i];\n\n            // - each nation should not be the zero address\n            require(nation != address(0), \"This Nation is an Invalid Owner\");\n            // - validate that the nations are unique using the isOwner mapping\n            require(!isOwner[nation], \"This Nation is not unique\");\n\n            isOwner[nation] = true;\n            nations.push(nation);\n        }\n        // 5. Set the state variable numConfirmationsRequired from the input.\n        numConfirmationsRequired = _numConfirmationsRequired;\n    }\n\n    /// @notice Declares a payable fallback function\n    /// @dev Should emit the Deposit event with msg.sender, msg.value and current amount of ether in the contract (address(this).balance)\n    function () payable external {\n        emit Deposit(msg.sender, msg.value, address(this).balance);\n    }\n\n    /// @notice Initiates the submission of a transaction in multi-sig wallet\n    /// @dev New Transaction struct is appended to the transaction array state variable\n    /// @param _to Address to submit transaction\n    /// @param _value The value of the transaction amount\n    /// @param _data Any meta data associated with the transaction\n    /// @return An SubmitTransaction event is emitted at the end\n    function submitTransaction(address _to, uint _value, bytes memory _data)\n        public\n        onlyOwner\n    {\n        // 2. Inside submitTransaction, create a new Transaction struct from the inputs\n        //    and append it the transactions array\n        //     - executed should be initialized to false\n        //     - numConfirmations should be initialized to 0\n        uint txIndex = transactions.length;\n\n        transactions.push(Transaction({\n            to: _to,\n            value: _value,\n            data: _data,\n            executed: false,\n            numConfirmations: 0\n        }));\n\n        // 3. Emit the SubmitTransaction event\n        // - txIndex should be the index of the newly created transaction\n\n        emit SubmitTransaction(msg.sender, txIndex, _to, _value, _data);\n    }\n\n    /// @notice Confirms a Transaction\n    /// @dev New Transaction struct is appended to the transaction array state variable\n    /// @param _txIndex The txIndex to be confirmed\n    /// @return An ConfirmTransaction event is emitted at the end\n    function confirmTransaction(uint _txIndex)\n        public\n        onlyOwner\n        txExists(_txIndex)\n        notExecuted(_txIndex)\n        notConfirmed(_txIndex)\n    {\n        Transaction storage transaction = transactions[_txIndex];\n\n        // update the isConfirmed to true for msg.sender\n        transaction.isConfirmed[msg.sender] = true;\n        // increment numConfirmation by 1\n        transaction.numConfirmations += 1;\n\n        // emit ConfirmTransaction event for the transaction being confirmed\n        emit ConfirmTransaction(msg.sender, _txIndex);\n    }\n\n    /// @notice Executes a Transaction\n    /// @dev New Transaction struct is appended to the transaction array state variable\n    /// @param _txIndex The txIndex to be confirmed\n    /// @return An ExecuteTransaction event is emitted at the end\n    function executeTransaction(uint _txIndex)\n        public\n        onlyOwner\n        txExists(_txIndex)\n        notExecuted(_txIndex)\n    {\n        Transaction storage transaction = transactions[_txIndex];\n\n        // Should require that number of confirmations >= numConfirmationsRequired\n        require(\n            transaction.numConfirmations >= numConfirmationsRequired,\n            \"cannot execute tx\"\n        );\n\n        // Set executed to true\n        transaction.executed = true;\n\n        // Execute the transaction using the low level call method\n        (bool success, ) = transaction.to.call.value(transaction.value)(transaction.data);\n        // Require that the transaction executed successfully\n        require(success, \"tx failed\");\n\n        // Emit ExecuteTransaction\n        emit ExecuteTransaction(msg.sender, _txIndex);\n    }\n\n    /// @notice Revokes a Transaction\n    /// @dev New Transaction struct is appended to the transaction array state variable\n    /// @param _txIndex The txIndex to be confirmed\n    /// @return An RevokeTransaction event is emitted at the end    \n    function revokeConfirmation(uint _txIndex)\n        public\n        onlyOwner\n        txExists(_txIndex)\n        notExecuted(_txIndex)\n    {\n        Transaction storage transaction = transactions[_txIndex];\n\n        // Require that msg.sender has confirmed the transaction\n        require(transaction.isConfirmed[msg.sender], \"tx not confirmed\");\n\n        // Set isConfirmed to false for msg.sender\n        transaction.isConfirmed[msg.sender] = false;\n        // Decrement numConfirmations by 1\n        transaction.numConfirmations -= 1;\n\n        // Emit RevokeConfirmation\n        emit RevokeConfirmation(msg.sender, _txIndex);\n    }\n\n    /// @dev Self explainatory function\n    function getNations() public view returns (address[] memory) {\n        return nations;\n    }\n\n    /// @dev Self explainatory function\n    function getTransactionCount() public view returns (uint) {\n        return transactions.length;\n    }\n\n    /// @dev Self explainatory function\n    function getTransaction(uint _txIndex)\n        public\n        view\n        returns (address to, uint value, bytes memory data, bool executed, uint numConfirmations)\n    {\n        Transaction storage transaction = transactions[_txIndex];\n\n        return (\n            transaction.to,\n            transaction.value,\n            transaction.data,\n            transaction.executed,\n            transaction.numConfirmations\n        );\n    }\n\n    /// @dev Self explainatory function\n    function isConfirmed(uint _txIndex, address _owner)\n        public\n        view\n        returns (bool)\n    {\n        Transaction storage transaction = transactions[_txIndex];\n\n        return transaction.isConfirmed[_owner];\n    }\n}\n",
  "sourcePath": "/home/witwiki/Documents/GitHub/artemis-treasury/contracts/ArtemisTreasury.sol",
  "compiler": {
    "name": "solc",
    "version": "0.5.16+commit.9c3226ce.Emscripten.clang"
  },
  "schemaVersion": "3.4.1",
  "updatedAt": "2021-08-11T04:53:11.784Z",
  "networkType": "ethereum",
  "devdoc": {
    "methods": {
      "confirmTransaction(uint256)": {
        "details": "New Transaction struct is appended to the transaction array state variable",
        "params": {
          "_txIndex": "The txIndex to be confirmed"
        },
        "return": "An ConfirmTransaction event is emitted at the end"
      },
      "executeTransaction(uint256)": {
        "details": "New Transaction struct is appended to the transaction array state variable",
        "params": {
          "_txIndex": "The txIndex to be confirmed"
        },
        "return": "An ExecuteTransaction event is emitted at the end"
      },
      "getNations()": {
        "details": "Self explainatory function"
      },
      "getTransaction(uint256)": {
        "details": "Self explainatory function"
      },
      "getTransactionCount()": {
        "details": "Self explainatory function"
      },
      "isConfirmed(uint256,address)": {
        "details": "Self explainatory function"
      },
      "revokeConfirmation(uint256)": {
        "details": "New Transaction struct is appended to the transaction array state variable",
        "params": {
          "_txIndex": "The txIndex to be confirmed"
        },
        "return": "An RevokeTransaction event is emitted at the end    "
      },
      "submitTransaction(address,uint256,bytes)": {
        "details": "New Transaction struct is appended to the transaction array state variable",
        "params": {
          "_data": "Any meta data associated with the transaction",
          "_to": "Address to submit transaction",
          "_value": "The value of the transaction amount"
        },
        "return": "An SubmitTransaction event is emitted at the end"
      }
    }
  },
  "userdoc": {
    "methods": {
      "confirmTransaction(uint256)": {
        "notice": "Confirms a Transaction"
      },
      "executeTransaction(uint256)": {
        "notice": "Executes a Transaction"
      },
      "revokeConfirmation(uint256)": {
        "notice": "Revokes a Transaction"
      },
      "submitTransaction(address,uint256,bytes)": {
        "notice": "Initiates the submission of a transaction in multi-sig wallet"
      }
    }
  }
}